:100000000C9446000C945D000C945D000C945D0013
:100010000C945D000C945D000C945D000C945D00EC
:100020000C945D000C945D000C945D000C945D00DC
:100030000C945D000C945D000C945D000C945D00CC
:100040000C945D000C945D000C945D000C945D00BC
:100050000C945D000C945D000C945D000C945D00AC
:100060000C945D000C945D000C945D000C945D009C
:100070000C945D000C945D000C945D000C945D008C
:100080000C945D000C945D000C945D0011241FBE67
:10009000CFEFD0E1DEBFCDBF11E0A0E0B1E0EAECF0
:1000A000F2E000E00BBF02C007900D92A030B10754
:1000B000D9F70E94B5000C9463010C9400008FEFF7
:1000C00088BB87BBAD9AA59A08950E945F0020E087
:1000D00030E041E068EC70E05FEF10C0842F809565
:1000E00088BB88EB9BE0FB013197F1F70197D9F7CB
:1000F000403819F42F5F3F4F36C0440F233031058D
:100100006CF320E030E040E8842F809588BB88EBDA
:100110009BE0FB013197F1F70197D9F7413021F4CA
:100120002F5F3F4F40E801C046952330310564F30F
:1001300020E030E088B358BB88E893E1FB013197B9
:10014000F1F70197D9F788B318BA88E893E1FB0172
:100150003197F1F70197D9F72F5F3F4F23303105E2
:1001600049F720E030E041E0C9CFDF92EF92FF9203
:100170000F931F930E945F0020E030E041E068ECA5
:1001800070E0EE24EA9491E1D92E82E2F82E14E494
:1001900008E8BEEE5DEDABEB10C0842F809588BB08
:1001A00088EB9BE0FB013197F1F70197D9F74038D5
:1001B00019F42F5F3F4F85C0440F233031056CF396
:1001C00020E030E040E8842F809588BB88EB9BE0FE
:1001D000FB013197F1F70197D9F7413021F42F5FF7
:1001E0003F4F40E801C046952330310564F320E0DD
:1001F00030E088B3E8BA88E893E1FB013197F1F782
:100200000197D9F788B318BA88E893E1FB013197D1
:10021000F1F70197D9F72F5F3F4F2330310549F7A9
:1002200020E030E0D8BA80E197E2FB013197F1F7A6
:100230000197D9F7F8BA80E197E2FB013197F1F71E
:100240000197D9F718BB80E197E2FB013197F1F7ED
:100250000197D9F708BB80E197E2FB013197F1F7ED
:100260000197D9F72F5F3F4F25303105D9F620E0B0
:1002700030E047E7B8BB80E197E2FB013197F1F747
:100280000197D9F758BB80E197E2FB013197F1F76D
:100290000197D9F7A8BB80E197E2FB013197F1F70D
:1002A0000197D9F748BB80E197E2FB013197F1F75D
:1002B0000197D9F72F5F3F4F25303105D9F620E060
:0A02C00030E041E07ACFF894FFCF60
:00000001FF
